:100F8000C12F0313831286018701031383168B017C
:100F90008701031783168901CD2F03138312861F40
:100FA000D22FE72F061FD52FEA2F861ED82FED2F21
:100FB000061EDB2FF02F861DDE2FF32F061DE12FDF
:100FC000F62F861CE42FF92F061CE42FFC2F373058
:100FD0008700CD2F36308700CD2F35308700CD2FBD
:100FE00034308700CD2F33308700CD2F323087004B
:100FF000CD2F31308700CD2F24308700CD2FCD2F3E
:04400E00F120FF3F5F
:00000001FF
