:020000000828CE
:100010000313831286018701031383168B01870163
:10002000F030860081130317831689011728A00179
:10003000A10103138316FE30860003138312061EEC
:10004000A014861E2015061FA015861F2115031358
:100050008316FD30860003138312061E2016861EAB
:10006000A016061F2017861FA11503138316FB3049
:10007000860003138312061EA017861E2114061F76
:10008000A114861F211603138316F730860003136D
:100090008312061E2117861E2014061FA117861F15
:1000A000A11603138316F030860003138312582819
:1000B000A11F5B288B28211F5E288E28A11E612886
:1000C0009128211E64289428A11D67289728211DA6
:1000D0006A289A28A11C6D289D28211C7028A02818
:1000E000A01F7328A328201F7628A628A01E7928E1
:1000F000A928201E7C28AC28A01D7F28AF28201D01
:100100008228B228A01C8528B528201C8828B82859
:100110002430870017282330870017282A308700CB
:1001200017284430870017284330870017284230AB
:100130008700172841308700172839308700172893
:100140003830870017283730870017283630870067
:1001500017283530870017283430870017283330A8
:10016000870017283230870017283130870017287A
:08017000303087001728172822
:04400E00F120FF3F5F
:00000001FF
