:020000000828CE
:100010000313831286018701031383168B01870163
:10002000F030860081130317831689011728A00179
:10003000A10103138316FE30860003138312061EEC
:10004000A014861E2015061FA015861F2115031358
:100050008316FD30860003138312061E2016861EAB
:10006000A016061F2017861FA11503138316FB3049
:10007000860003138312061EA017861E2114061F76
:10008000A114861F211603138316F730860003136D
:100090008312061E2117861E2014061FA117861F15
:1000A000A11603138316F030860003138312582819
:1000B000A11F5B28B528211F5E28B228A11E612838
:1000C000AF28211E6428AC28A11D6728A928211D5E
:1000D0006A28A628A11C6D288828211C70288B2836
:1000E000A01F73288E28201F76289128A01E79280B
:1000F0009428201E7C289728A01D7F289A28201D40
:1001000082289D28A01C8528A028201CB828A32868
:100110003930870017283830870017283730870094
:1001200017283630870017283530870017283430D5
:1001300087001728333087001728323087001728A8
:10014000313087001728303087001728413087006A
:10015000172842308700172843308700172844307B
:10016000870017282A308700172823308700172890
:0801700024308700172817282E
:04400E00F120FF3F5F
:00000001FF
