:020000000828CE
:100010000313831286018701031383168B01870163
:10002000FF308600031783168901162803138312F5
:10003000861F1B283028061F1E283328861E2128CD
:100040003628061E24283928861D27283C28061D08
:100050002A283F28861C2D284228061C4828452887
:10006000373087001628363087001628353087004D
:10007000162834308700162833308700162832308F
:100080008700162831308700162830308700162860
:0600900024308700162851
:04400E00F120FF3F5F
:00000001FF
