:020000000828CE
:100010000313831286018701031383168B01870163
:10002000F030860081130317831689011728A00179
:10003000A10103138316FE30860003138312061EEC
:10004000A014861E2015061FA015861F2115031358
:100050008316FD30860003138312061E2016861EAB
:10006000A016061F2017861FA11503138316FB3049
:10007000860003138312061EA017861E2114061F76
:10008000A114861F211603138316F730860003136D
:100090008312061E2117861E2014061FA117861F15
:1000A000A1165228A11F55288528211F58288828C5
:1000B000A11E5B288B28211E5E288E28A11D612889
:1000C0009128211D64289428A11C67289728211CA9
:1000D0006A289A28A01F6D289D28201F7028A02814
:1000E000A01E7328A328201E7628A628A01D7928E4
:1000F000A928201D7C28AC28A01C7F28AF28201C04
:100100008228B22824308700172823308700172838
:100110002A3087001728443087001728433087008B
:1001200017284230870017284130870017283930B8
:10013000870017283830870017283730870017289E
:10014000363087001728353087001728343087006D
:1001500017283330870017283230870017283130AE
:0C01600087001728303087001728172868
:04400E00F120FF3F5F
:00000001FF
